:020000040000FA
:1000000080314428080008007E1480310B1F092825
:100010000A2842282100931D0E280F2818282000A6
:10002000931D1328142818288F318A2780314228DD
:100030002100931C1C281D2826282000931C212801
:10004000222826288F316C27803142282100911CDC
:100050002A282B2834282000911C2F2830283428C7
:100060008F315D27803142282100111C3828392822
:1000700042282000111C3D283E2842288731BA27FB
:10008000803142287E100900803146288731FF27C1
:100090008031FD0053308400873085002030860099
:1000A000003087001D308E31CC2680313D308400F9
:1000B0000030850018308E31C62680317E10200039
:1000C0008631402E8E31C1268031003A03196928CD
:1000D0006A28BB298F31C82780312000E8006808D2
:1000E000D00069298E31AB268031BB298E31AE26F6
:1000F00080318E31B42680318E31BA268031220093
:100100000D120C100D13BB29853169258031BB29D7
:100110008F3127278031BB29863199268031BB2931
:100120008F314F278031BB290030E100E20081315F
:10013000BC218031BB298331D72380312000600866
:10014000C8005F08C700BB294808E2004708E10073
:100150008131BC218031BB298331D72380312000FC
:100160006008AB005F08AA002B08E0002A08DF0047
:1001700008308F31A8278031BB292B08E2002A08DC
:10018000E1008131BC218031BB298331D72380310B
:1001900020006008CA005F08C900BB290A30D900E6
:1001A0000030DA002B08DC002A08DB008431F02460
:1001B000803120005A08AF005908AE008E31B126B8
:1001C0008031BB298E31B4268031BB290030E1005B
:1001D000E2008131BC2180310A302000D90000309A
:1001E000DA002B08DC002A08DB008431F02480319F
:1001F00020005A08AD005908AC008E31B726803176
:10020000BB298E31BA26803190284808E000470883
:10021000DF0000308F31A827803120004808BE0061
:100220004708BD00BB292B08C6002A08C5003E08A8
:10023000E2003D08E1008131BC218031BB29480842
:10024000E0004708DF0002308F31A827803120000E
:100250004808C0004708BF00BB292B08C6002A0871
:10026000C5004008E2003F08E1008131BC21803137
:10027000BB294808E0004708DF0004308F31A82779
:10028000803120004808C2004708C100BB292B0864
:10029000C6002A08C5004208E2004108E100813199
:1002A000BC218031BB294808E0004708DF00063048
:1002B0008F31A827803120004808C4004708C300B8
:1002C000BB294408E2004308E1008131BC218031B0
:1002D000BB295008E800E9016908003A03197129AF
:1002E000BB2968080B3A03197228073A03197628C4
:1002F000123A03199028013A031994283F3A031936
:10030000BD28013A0319AC28023A0319C5280A3A54
:1003100003198428033A03198828013A03198C2801
:10032000153A0319CE28013A0319E2287F3A031936
:10033000E628013A03190129033A0319A428013ACE
:1003400003199B282C3A031905291F3A031913296D
:10035000093A03191F29033A03192D29F93A0319F8
:100360003929073A03194729093A03195329033A46
:1003700003196129BB29080020006208E700610811
:10038000E60003306202E830031961020318C9294C
:10039000CA292E2A3108E300E4016308D900640861
:1003A000DA006708DC006608DB008431F024813164
:1003B00020005908E5006508B2003108E300E401B7
:1003C0006308D9006408DA006708DC006608DB000F
:1003D0008531D725813120005A08E7005908E60009
:1003E0003508E300E4016308D9006408DA0067080F
:1003F000DC006608DB008431F024813120005908DC
:10040000E5006508B6003508E300E4016308D9009B
:100410006408DA006708DC006608DB008531D72550
:10042000813120005908E5006508BA003208203EF5
:10043000860087010108E3006308B3003608203E08
:10044000860087010108E3006308B7003A08203EF0
:10045000860087010108E3006308BB0008007908F3
:100460002000D6007808D50003307902E83003195F
:10047000780203183C2A3D2AA12A3108FA00FB0120
:100480007A08F0007B08F1005608F3005508F200E6
:1004900085312D2582317008FC007C082000B200D7
:1004A0003108FA00FB017A08F0007B08F1005608D9
:1004B000F3005508F20086310C26823171082000C5
:1004C000D6007008D5003508FA00FB017A08F00064
:1004D0007B08F1005608F3005508F20085312D2500
:1004E00082317008FC007C082000B6003508FA0054
:1004F000FB017A08F0007B08F1005608F30055086C
:10050000F20086310C2682317008FC007C08200045
:10051000BA003208203E860087010108FA007A08F6
:10052000B3003608203E860087010108FA007A08E9
:10053000B7003A08203E860087010108FA007A08D1
:10054000BB00080001302000D7005708CE074E0836
:10055000D700D8012D085806031DB02A2C085706CD
:10056000031DB32AB42A132B8531A025823186318D
:10057000C32682318F311B27823120003A08203E6A
:10058000860087013F300106031DC72AC82AEE2ACC
:100590008531A02582318531A02582318631C3265F
:1005A00082318F311B27823120003608203E8600A1
:1005B00087013F300106031DDE2ADF2AEE2A85313E
:1005C000A02582318531A02582318531A025823157
:1005D0008631C32682318F311B2782316F30200054
:1005E0003306031DF42AF52A112B6F303706031D3D
:1005F000FA2AFB2A112B6F303B06031D002B012B1F
:10060000112B8E31A82682310030F800F90082319A
:100610002F2282318F314127823144308F3133276D
:1006200082312000CE01080001302000D700570899
:10063000CF074F08D700D8012F085806031D222BDB
:100640002E085706031D252B262B802B8531A02530
:10065000833186316E2683318F311B278331200011
:100660003A08203E860087016F300106031D392BB2
:100670003A2B602B8531A02583318531A02583312C
:1006800086316E2683318F311B2783312000360857
:10069000203E860087016F300106031D502B512B31
:1006A000602B8531A02583318531A02583318531AB
:1006B000A025833186316E2683318F311B2783310C
:1006C0003F3020003306031D662B672B7E2B3F3007
:1006D0003706031D6C2B6D2B7E2B3F303B06031D15
:1006E000722B732B7E2B8E31A526833120004A0876
:1006F000F9004908F80082312F2283312000CF0110
:1007000008002000DE005908DB005B08DD00230044
:1007100095188B2B8C2B872B20005E08FF3EDB006F
:10072000FF3003180030DC005B082300910020003C
:100730005C08230092007F302000DB005B08230070
:100740009505CE2B23009518A62BA72BA22B2000B6
:100750005D08860087010108230093000130200016
:10076000DB005B08DD070130230091070030923D7C
:10077000200003108B1FBD2BBE2BBF2B03148B132C
:100780002300151555309600AA30960095141511C2
:100790002000031CCC2BCD2BCE2B8B17013020003F
:1007A000DA025A0A031DD52BD62BA22B08002000F3
:1007B00036082100AE00AF012E082000D90021002C
:1007C0002F082000DA0035082100B000B101300800
:1007D0002000DB00210031082000DC0087311327D6
:1007E000833120003A0859072100B20020005A083E
:1007F00003185A0A2100B300200032082100B40077
:10080000B50134082000D900210035082000DA00A5
:1008100031082100B600B70136082000DB002100B6
:1008200037082000DC008731132783312000590866
:10083000210032072000DF005A082100333D20004C
:10084000E00008002000E7016735003E8731D0272F
:100850008431200067353D3E860087015F08C03F38
:100860006008C13F0130E6006608E7070430670210
:10087000031C3B2C3C2C242C08308731D02784319E
:1008800020006008AB005F08AA0022000D120C10C7
:100890000D138E31AE2684312000BA013A08203E75
:1008A000860087010108E6006608BB003C14B6011B
:1008B0003608203E860087010108E6006608B7007A
:1008C0003814B2013208203E860087010108E60094
:1008D0006608B300341408009E2C22000D1320007B
:1008E0003C1C732C742C782C3B0822008E000D16B7
:1008F0000A30F00070082000B000B22C22000D1267
:100900002000381C842C852C892C370822008E006E
:100910000C146430F00070082000B000B22C2200EB
:100920000C102000341C952C962C9A2C3308220095
:100930008E000D172000B001B00AB22C2000300844
:10094000F000F1017108003A0319A72C9A2C7008E5
:10095000013A03196D2C0B3A03197E2C6E3A0319D8
:100960008F2C9A2C08002000DE005E08DB005B085C
:10097000DD0023009518BD2CBE2CB92C2000590891
:10098000DB00DC015B082300910020005C082300F1
:100990009200E72C23009518CE2CCF2CCA2C7F3048
:1009A0002000DB005B0823009505151413082000C8
:1009B000DB005D08860087015B0881000130DB00F9
:1009C0005B08DD070130230091070030923D0130C4
:1009D0002000DA025A0A031DEE2CEF2CCA2C080064
:1009E0002000DE01DF0159085A040319F82CF92C04
:1009F000282DE001E00A052D0130D935DA0D890BEB
:100A0000FD2C0130DD005D08E007DA1F082D092DFF
:100A1000FC2C0130DE35DF0D890B0A2D5A085C02F3
:100A2000031D142D59085B02031C172D182D1D2DB5
:100A30005908DB025A08DC3B5E140130DA36D90C67
:100A4000890B1E2D0130E002031D272D282D092DB5
:100A50005F08DA005E08D9000800F501F6017008A9
:100A600071040319342D352D642DF701F70A412D3A
:100A70000130F035F10D890B392D0130F400740887
:100A8000F707F11F442D452D382D0130F535F60DB2
:100A9000890B462D71087302031D502D70087202D8
:100AA000031C532D542D592D7008F2027108F33B8D
:100AB00075140130F136F00C890B5A2D0130F70214
:100AC000031D632D642D452D7608F1007508F00097
:100AD000080020005208D9005908DB00D2015B0849
:100AE000031D732D742D792D3930D9005908D2008A
:100AF0009F2D5B08033E860087010114892D353048
:100B0000D9005908D2009F2D3130D9005908D200A0
:100B10009F2D5B08860087010108D900DA015A0879
:100B2000003A0319942D9F2D5908013A03197F2D7E
:100B30000B3A0319842D6E3A0319742D9F2D08006A
:100B400020005208F0007008F200D2017208031D64
:100B5000AA2DAB2DB02D3930F0007008D200D62D63
:100B60007208033E860087010114C02D3530F00065
:100B70007008D200D62D3130F0007008D200D62D8A
:100B80007208860087010108F000F1017108003A3F
:100B90000319CB2DD62D7008013A0319B62D0B3A47
:100BA0000319BB2D6E3A0319AB2DD62D080020007A
:100BB00059085A040319DD2DDE2D072EDE01DE0A49
:100BC000EA2D0130D935DA0D890BE22D0130DD0037
:100BD0005D08DE07DA1FED2DEE2DE12D5A085C02CF
:100BE000031DF42D59085B02031CF72DF82DFC2D75
:100BF0005908DB025A08DC3B0130DA36D90C890B84
:100C0000FD2D0130DE02031D062E072EEE2D5C08A1
:100C1000DA005B08D9000800700871040319112E6E
:100C2000122E3B2EF501F50A1E2E0130F035F10D86
:100C3000890B162E0130F4007408F507F11F212EE0
:100C4000222E152E71087302031D282E70087202C1
:100C5000031C2B2E2C2E302E7008F2027108F33B51
:100C60000130F136F00C890B312E0130F502031DF5
:100C70003A2E3B2E222E7308F1007208F000080075
:100C80008731702786318431222486318B170B17E8
:100C900033302000D9000730DA008E31ED2686315E
:100CA0006C302000D9000430DA008E31F62686310F
:100CB00014302000D9000330DA008E31FF2686314F
:100CC000A2302000D9000230DA008F3108278631A7
:100CD000803162208631682E8031442820005208FD
:100CE0000319732E742E982E520A8600870101086C
:100CF000031D7B2E7C2E842E0930F000520A8600C4
:100D0000870170088100892E520A86008701013010
:100D10008102520A860087010108203E8600870171
:100D20000108F0005208023E860087017008810029
:100D300008002000520803199E2E9F2EC22E01305B
:100D4000D900520A8600870159088107520A860095
:100D500087010A300106031DAE2EAF2EB32E520AB4
:100D6000860087018101520A860087010108203E22
:100D7000860087010108D9005208023E86008701DB
:100D8000590881000800200052080319C82EC92EF6
:100D9000EC2E0130F000520A8600870170088107AE
:100DA000520A860087010A300106031DD82ED92E6B
:100DB000DD2E520A860087018101520A86008701D2
:100DC0000108203E860087010108F0005208023E1B
:100DD00086008701700881000800083023009F000A
:100DE00090309D0024309E00A0309B0001309C007C
:100DF00000302000D9000030DA008E31DB26863149
:100E000000302000D9000030DA008E31E42686312F
:100E100000302000D9000030DA008E31D226863131
:100E20002000D40108002000DD01DE01591C192F2B
:100E30001A2F1E2F5B08DD075C08DE3D0130DB3515
:100E4000DC0D890B1F2F0130DA36D90C890B242FCA
:100E500059085A04031D2D2F2E2F162F5E08DA0075
:100E60005D08D90008000130F00070082000D107AB
:100E700008305106031D3D2F3E2F522F52080319F3
:100E8000422F432F512F5208033E8600870101084D
:100E90000139F0000130F00601087006FE397006D5
:100EA0008100D10108003F3406345B344F3466348E
:100EB0006D347D3407347F346F34643400340A3445
:100EC00000340A3400340134643400340034003413
:100ED0000A34003400340034013400340034003467
:100EE0008731892787318731F82787318E31BD26B1
:100EF00087318731E42787318F31EC2787318F3174
:100F0000D92787318731A22787318631ED2687316E
:100F1000080022008C018D018E013E3021008C00E2
:100F2000A0308D008E0123008E018D0116308C00C3
:100F300024008D018C018E012100951722009D0156
:100F40009E01080020009901803097009601111041
:100F50001708EB001608EA0021001114A330200046
:100F6000D9000E30DA008E31ED2687313130200085
:100F700098000800200011106B08F1006A08F000CA
:100F80008F31B72787312100260827040319C92F7D
:100F9000CA2FCF2F27088A0026080A0087310800A9
:100FA0002000E3006308E1006108D9000230E2009C
:100FB0006208DA0064308431B32487312000650888
:100FC000E0006408DF0008003E3028009D009C011E
:100FD000200093112100931503302000D900003028
:100FE000DA008F31082787314B3028009E00080037
:100FF00078302100990098012200960108004034C1
:101D46000800080028001711080028001E110800C6
:101D560020001C15080020001C110800280017157B
:101D6600080028001711080028001E150800280082
:101D76001E11080016302100970008002000110EE1
:101D8600890C01390800640080010131890BC72ED6
:101D96000034FE0012001E00FE0BCD2E0034200083
:101DA6005A082100A900200059082100A8000800AF
:101DB60020005A082100AD00200059082100AC007F
:101DC600080020005A082100AB0020005908210015
:101DD600AA00080020005A082100A7002000590880
:101DE6002100A600080020005A082100A5002000B6
:101DF60059082100A400080020005A082100A30069
:101E0600200059082100A200080020005A082100DD
:101E1600A100200059082100A0000800F0002000C1
:101E2600111E162F172F122F700823009A00080074
:101E360020005208F0007008F100D2017108033E3C
:101E4600860087010114080020005208D9005908AD
:101E5600DA00D2015A08033E860087010114080001
:101E6600F1008F317B278F31003A03193B2F3C2F2E
:101E7600402F71088F3111278F3108007D08F0003F
:101E860070082000B3007D08F0007008B7007D08D8
:101E9600F0007008BB0008007D082000D900590832
:101EA600B3007D08D9005908B7007D08D900590844
:101EB600BB00080020009110210024082504031906
:101EC600652F662F6B2F25088A0024080A008F319C
:101ED6000800200093102100220823040319742F00
:101EE600752F7A2F23088A0022080A008F310800EE
:101EF600F0012000111E802F812F882F23009E1EA7
:101F0600852F862F882FF001F00A70080800200020
:101F160093112100200821040319922F932F982F43
:101F260021088A0020080A008F3108002000911E2F
:101F36009D2F9E2F992FD40123009D1CA32FA42FE4
:101F4600A62F1D121D16190808002000E3005F3099
:101F5600E1006108D9000230E2006208DA00630895
:101F6600833181238F3108002000181DBB2FBC2F21
:101F7600C32F181071089700700896001814C72F01
:101F8600710897007008960008008E31C1268F31BF
:101F9600003A0319CF2FD02FD82F8F3199278F31A1
:101FA6002000D9005908DA005A0808001E3020001F
:101FB6009B009A01911021009114A4302000D900B1
:101FC6000E30DA008E31F6268F314B3020009C0021
:101FD60008003E302800960095012000931021004D
:101FE600931402302000D9000030DA008E31FF262B
:0A1FF6008F314B30280097000800DF
:020000040001F9
:04000E00E43DFF1EB0
:10E000000000000000000000000000000000000010
:04E01000000000000C
:00000001FF
