:020000040000FA
:1000000080312628643400347E1480318B1E092808
:100010000A2812280B1D0D280E2812289F316D2743
:10002000803124280B1F1528162824282100111C94
:100030001A281B2824282000111C1F2820282428C7
:100040009031D820803124287E1009008031282862
:100050001E308400893085000F30860023308700F1
:100060000030FF0051308731F42780318031022089
:100070008031EA00803103208031EB005D30840064
:100080009F308500B7308600003087000030FF00C9
:1000900010308731F42780316030840023308500B0
:1000A0009030FE000030FF009E31C8268031FA01FA
:1000B000FB0153308400003085001730FE00003013
:1000C000FF009E31C8268031A030840000308500BA
:1000D0001730FE000030FF009E31C82680317E10B0
:1000E00020009231302A96312926803103302000B9
:1000F000C9004908FA0059085A04031980288128C0
:100100008428E101E10A88280330C9004908E10098
:100110000B309E31E126803142309E31E126803124
:100120006430F2000030F30020005A08F50059084E
:10013000F40088310520803172082000C900490888
:10014000D5006430F2000030F3005A08F500590879
:10015000F4009731CC27803173082100D700720852
:10016000D6000A30F2000030F3005708F5005608B8
:10017000F40088310520803172082000C900490848
:10018000D4000A30F2000030F30021005708F500D7
:100190005608F4009731CC27803172082000C9003E
:1001A0004908D300963129268031013A031DD92808
:1001B000DA28D22805309531D8258031013A031D3F
:1001C000E228E32859292A309E31E12680313F3048
:1001D0009E31E12680319E316526803122008C12CD
:1001E0002000DB01DC01F72896312926803105301B
:1001F0009531D8258031013A031DFF2800290A29AD
:10020000003020005C02503003195B02031C0929F6
:100210000A29F42805309531D8258031013A031D8B
:10022000122913293F29083086318E2680310B3060
:100230009E31E126803120309E31E1268031232914
:1002400096312926803105309531D8258031013A03
:1002500003192B292C2920298531432580312000A1
:100260005E1D3329342937295E115E142F2D03308A
:10027000C9004908FA0057299631292680310530EE
:100280009531D8258031013A0319472948293C295D
:10029000003086318E2680318F3128278031200032
:1002A000DE1C532954293729DE105E142F2DE1015D
:1002B000E10A06309531D8258031013A031D6129C4
:1002C0006229722920005E1468299631292680311E
:1002D00006309531D8258031013A031970297129EA
:1002E00065292F2D04309531D8258031013A031D21
:1002F0007A297B29412A212AE101E10A0330C90038
:100300004908FA005308C900CA015508CB00CC01BE
:100310004B08F2004C08F3006430F4000030F500A4
:1003200092311122803172082000CD007308CE0076
:100330005408CF00D0014F08F2005008F3000A30F3
:10034000F4000030F5009231112280317208200053
:100350004D07D10073084E3DD20049085107D9001E
:100360004A08523DDA0043309E31E12680312A307E
:100370009E31E1268031003086318E268031382A48
:100380000330C9004908FA005908F2005A08F3007E
:10039000F4016A08F5006B08F600F7019631A9260A
:1003A000803172082100D3007308D4007408D5008E
:1003B0005508540453040319DE29DF29002A233089
:1003C0009E31E12680313E309E31E126803102307F
:1003D0002000C9004908E100210053082000A400C2
:1003E000210054082000A500210055082000A60087
:1003F0009131D6218031003086318E268031382AE5
:1004000003302000C9004908E100043086318E26FF
:100410008031382AE101E10A22008C129E316526E2
:1004200080312100A801A9013F309E31E1268031B1
:1004300042309E31E1268031003086318E26803177
:10044000382A20006108C900CA014A08003A031985
:100450002A2A382A4908013A0319C029033A0319FC
:100460000A2A013A03197C29382A96312926803133
:1004700004309531D8258031013A0319402A412AA8
:10048000352A08309531D8258031013A031D492A93
:100490004A2A612A2000E001E00A0330C900490825
:1004A000E1008C3156248031582A9631292680313A
:1004B00008309531D8258031013A0319602A612A24
:1004C000552A07309531D8258031013A031D692A14
:1004D0006A2A7F2A03302000C9004908E1009531CB
:1004E00064258031762A963129268031073095316E
:1004F000D8258031013A03197E2A7F2A732A0230D7
:100500009531D8258031013A031D872A882A282B66
:100510002A309E31E12680313F309E31E126803104
:100520009E316526803122008C122000DB01DC0127
:100530009C2A96312926803102309531D825803188
:10054000013A031DA42AA52AAF2A003020005C022C
:10055000503003195B02031CAE2AAF2A992A0230DD
:100560009531D8258031013A031DB72AB82AEC2AE3
:10057000083086318E268031C02A96312926803176
:1005800002309531D8258031013A0319C82AC92A89
:10059000BD2A6F309E31E126803170309E31E126D8
:1005A000803120005A08F9005908F80000309E31C7
:1005B000FE26803120005A082100A10020005908A1
:1005C0002100A00020006B08F9006A08F80008303C
:1005D0009E31FE268031122B003086318E268031EE
:1005E000F42A96312926803102309531D825803180
:1005F000013A0319FC2AFD2AF12A70309E31E126C6
:100600008031210021082000DA002100200820008C
:10061000D90008309F31D827803179082000EB00BD
:100620007808EA0043309E31E1268031210021081C
:100630002000A100210020082000A0006B08A300DA
:100640006A08A2008C31D82480312000E101E10A3F
:1006500000309531D8258031013A031D302B312BE4
:10066000D12B2A309E31E12680313F309E31E12668
:1006700080319E316526803122008C122000DB0102
:10068000DC01452B96312926803100309531D82563
:100690008031013A031D4D2B4E2B582B003020008A
:1006A0005C02503003195B02031C572B582B422B62
:1006B00000309531D8258031013A031D602B612B24
:1006C000952B083086318E268031692B963129266C
:1006D000803100309531D8258031013A0319712BD2
:1006E000722B662B79309E31E12680317A309E3133
:1006F000E126803120005A08F9005908F80002303C
:100700009E31FE26803120005A082100A3002000DF
:1007100059082100A20020006B08F9006A08F800BF
:1007200008309E31FE268031BB2B003086318E266C
:1007300080319D2B96312926803100309531D82586
:100740008031013A0319A52BA62B9A2B7A309E31C2
:10075000E1268031210023082000DA002100220850
:100760002000D90008309F31D82780317908200037
:10077000EB007808EA0043309E31E1268031210009
:1007800023082000A100210022082000A0006B08FF
:10079000A3006A08A2008C31D82480312000E10136
:1007A000E10A01309531D8258031013A031DD92B5A
:1007B000DA2B7A2C2A309E31E12680313F309E316F
:1007C000E12680319E316526803122008C12200086
:1007D000DB01DC01EE2B9631292680310130953189
:1007E000D8258031013A031DF62BF72B012C003060
:1007F00020005C02503003195B02031C002C012C0A
:10080000EB2B01309531D8258031013A031D092C9D
:100810000A2C3E2C083086318E268031122C9631DF
:100820002926803101309531D8258031013A0319CC
:100830001A2C1B2C0F2C83309E31E1268031843002
:100840009E31E126803120005A08F9005908F8004D
:1008500004309E31FE26803120005A082100A50078
:10086000200059082100A40020006B08F9006A0844
:10087000F80008309E31FE268031642C003086312D
:100880008E268031462C96312926803101309531D3
:10089000D8258031013A03194E2C4F2C432C84303B
:1008A0009E31E1268031210025082000DA00210058
:1008B00024082000D90008309F31D82780317908DA
:1008C0002000EB007808EA0043309E31E1268031B9
:1008D000210025082000A100210024082000A000FC
:1008E0006B08A3006A08A2008C31D8248031200054
:1008F000E101E10A03309531D8258031013A031D29
:10090000822C832C232D2A309E31E12680313F30EA
:100910009E31E12680319E316526803122008C1285
:100920002000DB01DC01972C963129268031033031
:100930009531D8258031013A031D9F2CA02CAA2C7B
:10094000003020005C02503003195B02031CA92C0C
:10095000AA2C942C03309531D8258031013A031DFF
:10096000B22CB32CE72C083086318E268031BB2C7C
:1009700096312926803103309531D8258031013ACE
:100980000319C32CC42CB82C8D309E31E126803144
:100990008E309E31E126803120005A08F900590836
:1009A000F80006309E31FE26803120005A082100D2
:1009B000A700200059082100A60020006B08F900BC
:1009C0006A08F80008309E31FE2680310D2D003077
:1009D00086318E268031EF2C9631292680310330E6
:1009E0009531D8258031013A0319F72CF82CEC2CDD
:1009F0008E309E31E1268031210027082000DA0068
:100A0000210026082000D90008309F31D8278031E6
:100A100079082000EB007808EA0043309E31E12697
:100A20008031210027082000A10021002608200095
:100A3000A0006B08A3006A08A2008C31D824803182
:100A40002000E101E10A20005D080319282D292D6D
:100A5000D228DD01073086318E268031D228200051
:100A60005E1C332D342D422D5E109E316526803163
:100A70002100A801A9012A309E31E126803191315F
:100A80001E21803108002000C501C6010330BB00D3
:100A90003B08FA000330BB003B08E0006430F20082
:100AA0000030F3006B08F5006A08F4008831052077
:100AB000853172082000BB003B08D8006430F2008A
:100AC0000030F3006B08F5006A08F4009731CC277A
:100AD000853173082000C8007208C7000A30F20090
:100AE0000030F3004808F5004708F400883105207D
:100AF000853172082000BB003B08D7000A30F200A5
:100B00000030F3004808F5004708F4009731CC277F
:100B1000853172082000BB003B08D600963129269B
:100B20008531013A031D952D962D8E2D0530953179
:100B3000D8258531013A031D9E2D9F2DB42D20000F
:100B4000C501C50A003086318E268531AA2D963121
:100B50002926853105309531D8258531013A03198B
:100B6000B22DB32DA72D702E06309531D8258531A5
:100B7000013A031DBC2DBD2DCE2D2000C601C60A95
:100B8000C42D96312926853106309531D8258531F9
:100B9000013A0319CC2DCD2DC12D702E0430953185
:100BA000D8258531013A031DD62DD72D2F2E0330A0
:100BB0002000BB003B08FA005608BB00BC015808E7
:100BC000BD00BE013D08F2003E08F3006430F400B1
:100BD0000030F50092311122853172082000BF00EB
:100BE0007308C0005708C100C2014108F200420862
:100BF000F3000A30F4000030F50092311122853103
:100C0000720820003F07C3007308403DC4003B0842
:100C10004307EA003C08443DEB0021309E31E126C9
:100C2000853120006B08F9006A08F80008309E3111
:100C3000FE2685312A309E31E1268531003086310D
:100C40008E268531262E9631292685310430953120
:100C5000D8258531013A03192E2E2F2E232E083048
:100C60009531D8258531013A031D372E382E512E66
:100C700003302000BB003B08E0000330BB003B0812
:100C8000E1008C3156248531482E96312926853154
:100C900008309531D8258531013A0319502E512E4F
:100CA000452E07309531D8258531013A031D592E3F
:100CB0005A2E8E2D03302000BB003B08E1009531F9
:100CC00064258531662E9631292685310730953188
:100CD000D8258531013A03196E2E6F2E632E8E2D85
:100CE00020004503031D752E762E822EE001E00ABA
:100CF000E101E10A2A309E31E126853142309E3100
:100D0000E126853120004603031D872E882E8D2E77
:100D10005E150C309E31E126853108002000A000D0
:100D2000782FC830F2000030F3002030F40000309B
:100D3000F5009731982786319D2FC830F20000309A
:100D4000F3002030F4000030F50097319827863109
:100D50000230F9000430F800BA30890BAD2EF80BE0
:100D6000AD2EF90BAD2E0032912E9630F2000030F0
:100D7000F3003C30F4000030F500973198278631BD
:100D80000230F9000430F800BA30890BC52EF80B98
:100D9000C52EF90BC52E00329630F2000030F3005C
:100DA0006430F4000030F5009731982786319D2F8C
:100DB000C830F2000030F3002030F4000030F500BD
:100DC0009731982786310B30F9002630F8005E30D5
:100DD000890BE82EF80BE82EF90BE82EC830F2004C
:100DE0000030F3002030F4000030F50097319827F0
:100DF00086310B30F9002630F8005E30890BFE2E6C
:100E0000F80BFE2EF90BFE2E912EFA30F200003078
:100E1000F3006430F4000030F500973198278631F4
:100E20000230F9000430F800BA30890B152FF80BA6
:100E3000152FF90B152F0032FA30F2000030F300B5
:100E40006430F4000030F5009731982786319D2FEB
:100E50009630F2000030F3000C30F4000030F50062
:100E60009731982786316430F2000030F300263045
:100E7000F4000030F5009731982786313C30F200BD
:100E80000030F3003230F4000030F500973198273D
:100E900086319D2F2830F2000030F3003230F4000C
:100EA0000030F5009731982786313230F20000305B
:100EB000F3002630F4000030F50097319827863192
:100EC0004B30F2000030F3002030F4000030F50029
:100ED0009731982786319D2FF430F2000130F300CE
:100EE0001430F4000030F5009731982786319D2F9B
:100EF0002008F800F9017908003A0319802F9D2F86
:100F00007808003A0319912E013A03199D2E033AED
:100F10000319B52E013A0319D82E073A0319052FE4
:100F2000013A0319282F033A03194A2F013A0319EA
:100F30006C2F0F3A03196C2F9D2F080005302000ED
:100F4000AD002D08AE002C08F3002B08F2009F31F5
:100F50002D278731003A031DAE2FAF2FBB2F003056
:100F6000F32F01302000AE022E08031DB82FB92F39
:100F7000BB2FFC30F32F20002C08A5002B08A40069
:100F80008931C4218731003A031DC72FC82FB12FE3
:100F900020002B0886002C0887004631403F2100A6
:100FA0003202F200413F333BF30091313721873168
:100FB00000307302653003197202031CE02FE12F29
:100FC000EA2F20002C08F3002B08F2009E31A02607
:100FD0008731AF2F20002C08F3002B08F2009E3140
:100FE000A7268731AF2F0800FE0012001E00013037
:100FF000FE020030FF3B7F087E04031DF52F003406
:101000002000110E890C01390800F801F90172085D
:10101000730403190C280D283C28F701F70A192836
:101020000130F235F30D890B11280130F6007608F6
:10103000F707F31F1C281D2810280130F835F90D7B
:10104000890B1E2873087502031D28287208740274
:10105000031C2B282C2831287208F4027308F53B56
:1010600078140130F336F20C890B32280130F70284
:10107000031D3B283C281D287908F3007808F2005E
:101080000800F6007608F200F301F20EF30EF030DD
:10109000F30572080F39F304F030F2056030F40004
:1010A0002330F50072087407F7007308753DF800E7
:1010B0007708860078088700423181017708053E6D
:1010C000F2000030783DF300720886007308870054
:1010D0000030C03FC13FC23FC33F77088600780859
:1010E00087004A310030C03FC13F7708860078084A
:1010F00087004C310030C03FC13F77088600780838
:101100008700413101089E31592688310800F700D7
:101110007208F4007408F6002300951890289128AE
:101120008C287708FF3EF400FF3003180030F500EC
:1011300074089100750892007F30F40074089505DA
:10114000C92823009518A528A628A1287608860076
:101150008701010893000130F4007408F60701309C
:1011600091070030923D200003108B1FB828B9284A
:10117000BA2803148B132300151555309600AA3096
:101180009600951415112000031CC728C828C928EB
:101190008B170130F302730A031DCF28D028A12832
:1011A000080000302000A0000030A1000030A200A4
:1011B0007408730472040319DE28DF281729A301B9
:1011C000A30AEC280130F235F30DF40D890BE32866
:1011D0000130F8007808A307F41FEF28F028E22870
:1011E0000130A035A10DA20D890BF12874087702FA
:1011F000031D002973087602031D00297208750279
:10120000031C032904290B297208F5027308F63B15
:101210007408F73B20140130F436F30CF20C890B00
:101220000C290130A302031D16291729F0282008D4
:10123000F2002108F3002208F400080000346F34A3
:1012400012348F3413342034003400340034013429
:101250008F341234AF34133420340034003400346B
:101260000234AF341234CF34133420340034003419
:1012700000340334CF341234EF34133420340034C8
:10128000003400340434EF3412340F341434203476
:1012900000340034003405340F3413342F34143444
:1012A000203400340034003406342F3413344F34E7
:1012B0001434203400340034003407344F341334F1
:1012C0006F341434203400340034003408344F3484
:1012D00012346F34133420340034003400342000CE
:1012E000250886002608870042310108031979295C
:1012F0007A29B02925088600260887004331403F17
:10130000A700413FA800A836A70CA836A70C2508BF
:1013100086002608870043312708810241312808CA
:10132000813B7F312508860026088700413101086E
:1013300096310026893178082000A7007908A80096
:10134000A836A70CA836A70C250886002608870013
:1013500043312708810741312808813D7F31C32966
:1013600025088600260887004131010896310026AD
:101370008931200025088600260887004331780837
:10138000C03F7908C13F08002000AA0121001D08C4
:101390002000A6002608A70021001E082000A600A5
:1013A0002608A8009E317026893100308B1B013041
:1013B0002000A9002508F3002408F2009F31EC2743
:1013C0008931200024088600250887000108A6002E
:1013D0002608E80024088600250887004531010812
:1013E000A6002608E7002100B201B3012000691021
:1013F0009031972089312000A6002608E6002100C0
:10140000B201B3012000E9108B138B310523893120
:101410002000290C031C8B1303188B179F31C52741
:10142000893121009D18152A162A112A2000691CCD
:101430001A2A1B2A042A270821009D0020002808B8
:1014400021009E002000E91C262A272A2B2AFA3098
:10145000A6002608AA002A08080020002B088600FB
:101460002C0887004A31403FAD00413FAE00EA30D2
:101470002E02563003192D02031C3F2A402A552AFA
:101480002B0886002C0887000108883141208A310A
:1014900020002B0886002C0887000108AD002D08CD
:1014A000F2009E3158268A31972A2B0886002C0894
:1014B000870049310108803AAD002B0886002C08CE
:1014C00087004E312B0884002C0885000E31003631
:1014D0000102803AAD0203186E2A6F2A972A2B0860
:1014E000023EAD0000302C3DAE002D0886002E08D7
:1014F0008700013081002B0886002C0887004A31C4
:101500000030C03FC13F2B0886002C0887004C31BB
:10151000FF30C03FFB30C13F2B0886002C088700FE
:101520000108AD002D08F2009E3158268A310800CE
:101530002000B5003508B100B201B10EB20EF03096
:10154000B20531080F39B204F030B1056030B30094
:101550002330B40031083307B6003208343DB700F9
:1015600036088600370887004131010895313E254D
:101570008A31003A0319BD2ABE2A042B20003608FE
:10158000860037088700413101089E315B268A3189
:10159000003A0319CC2ACD2A042B20003708AA00D0
:1015A0003608A900913106218A3120003708F3005E
:1015B0003608F2008D315A258A312000360886001F
:1015C00037088700423103300102031CE82AE92A68
:1015D000F12A360886003708870001088831412043
:1015E0008A3120003708AC003608AB003608860088
:1015F0003708870042310135B73E86008701413FF9
:101600008A00403F0A008B31080021001C08F900C5
:101610001B08F8002000691C0E2B0F2B102B732BBE
:1016200067080319142B152B6C2B242B210044085D
:101630008A0043080A008B31352B210042088A00BA
:1016400041080A008B31352B67080139A000A10140
:101650002108003A03192D2B352B2008003A0319D5
:10166000162B013A03191D2B352B20006808A0000A
:10167000A1012008F2002108F3000930F400003035
:10168000F500923111228B3114302000A20023305A
:10169000A3007208220786007308233D8700010813
:1016A00067060319542B552B682B671C582B592B95
:1016B000632B0030A0000430A10078082002F8005D
:1016C0007908213BF90078082100B2077908B33D79
:1016D00001302000E702732B78082100B207790857
:1016E000B33D20006914080020002B0886002C0858
:1016F00087004A31403FAD00413FAE0000302E022E
:10170000093003192D020318862B872B8F2B2C08E9
:10171000A6002B08A5009631D6268B31962B2C08D7
:10172000F3002B08F2008D31E8258B3120002B08C7
:1017300086002C0887004A310130810741310318A7
:10174000810A2B0886002C0887004A31403FAD00F3
:10175000413FAE0000302E02103003192D02031C51
:10176000B22BB32BE42B2B0886002C0887004531C5
:10177000403FAD00413FAE00423FAF00433FB000AD
:101780000430B036AF0CAE0CAD0C890BC12B2B085E
:1017900086002C08870043312D08C03F2E08C13F2A
:1017A0002B08023EAD0000302C3DAE002D08860017
:1017B0002E088700013081002B0886002C08870046
:1017C0004A310030C03FC13F08002000B300330859
:1017D000AF00B0012F08F2003008F3000930F40028
:1017E0000030F500923111228B310F302000B10012
:1017F0002330B20072083107B5007308323DB600DD
:101800003608AC003508AB0087319E278B312000AD
:10181000AF002F08B400362C3608F3003508F2006C
:101820009F312D278B31003A0319172C182C532C7C
:1018300020006508031D1D2C1E2C252C3608F300E6
:101840003508F2009131BA218B3120003608F300BF
:101850003508F2009E31AE268B3120003308AF00F0
:101860002F08F2009E315A268B31532C3408AF00DA
:10187000B001AF1BB0033008003A0319432CFF3A04
:101880000319482C532C2F08003A03190C2C532C05
:101890002F08FD3A0319532C033A0319532C013A2C
:1018A0000319532C532C2000340808002B309E3190
:1018B000E1268C31C62C7A03031D5F2C602C6C2C26
:1018C0000130F4007408D3070A305306031D692C55
:1018D0006A2CD72CD301D72C02307A06031D712C29
:1018E000722C7E2C0130F4007408D4070A305406A0
:1018F000031D7B2C7C2CD72CD401D72C03307A06EB
:10190000031D832C842C902C0130F4007408D5071F
:101910000A305506031D8D2C8E2CD72CD501D72CC3
:10192000D72C7A03031D952C962CA22C0130F400A1
:101930007408D6070A305606031D9F2CA02CD72CFE
:10194000D601D72C02307A06031DA72CA82CB42C64
:101950000130F4007408D7070A305706031DB12C74
:10196000B22CD72CD701D72C03307A06031DB92C03
:10197000BA2CD72C0130F4007408D8070A30580666
:10198000031DC32CC42CD72CD801D72C20006008F1
:10199000F400F5017508003A0319CF2CD72C740810
:1019A000013A03195B2C023A0319912CD72C080039
:1019B0006430F2000030F30020002108F500200818
:1019C000F400883105208C3172082000A40024081E
:1019D000D5006430F2000030F3002108F500200843
:1019E000F4009731CC278C3173082000A6007208D0
:1019F000A5000A30F2000030F3002608F5002508A3
:101A0000F400883105208C3172082000A4002408DD
:101A1000D4000A30F2000030F3002608F500250853
:101A2000F4009731CC278C3172082000A4002408E0
:101A3000D3006430F2000030F3002308F5002208E0
:101A4000F400883105208C3172082000A40024089D
:101A5000D8006430F2000030F3002308F5002208BB
:101A6000F4009731CC278C3173082000A60072084F
:101A7000A5000A30F2000030F3002608F500250822
:101A8000F400883105208C3172082000A40024085D
:101A9000D7000A30F2000030F3002608F5002508D0
:101AA000F4009731CC278C3172082000A400240860
:101AB000D600080072088600730887004531403F51
:101AC0002000A000413FA100423FA200433FA300ED
:101AD0000430A336A20CA10CA00C890B692D72084E
:101AE0008600730887004331403FA400413FA500B2
:101AF0002408A6002508A700A801A9012008A6021D
:101B00002108A73B2208A83B2308A93B2908F70086
:101B10002808F6002708F5002608F4007408A0003D
:101B20007508A1007608A2007708A3007208860055
:101B3000730887004F31010AA12DA337A20CA10C15
:101B4000A00C890B9D2D2308F7002208F600210820
:101B5000F5002008F400F71BBB2D7708031DBC2DF2
:101B60007608031DBC2D7508031DBC2D8030740242
:101B7000031CBB2DBC2DC42D0030F7000030F60037
:101B80000030F5007F30F400F71FD12D8030740253
:101B9000FF30753BFF30763BFF30773B0318D12D8C
:101BA000D22DDA2DFF30F700FF30F600FF30F500C0
:101BB0008030F4007208093E2000A0000030733D20
:101BC000A100200886002108870074088100080011
:101BD0008B1FEB2DEC2D332E8B13720886007308B0
:101BE00087004531403FF400413FF500423FF60099
:101BF000433FF7000430F736F60CF50CF40C890B74
:101C0000FB2D720886007308870045317408810235
:101C100041317508813B41317608813B413177087C
:101C2000813B7D3172088600730887004331403F55
:101C3000F400413FF5007408F6007508F700F8015C
:101C4000F90172088600730887004531760881071C
:101C500041317708813D41317808813D4131790832
:101C6000813D8B17772E72088600730887004531F7
:101C7000403FF400413FF500423FF600433FF7008C
:101C80000430F736F60CF50CF40C890B412E720873
:101C90008600730887004531740881024131750858
:101CA000813B41317608813B41317708813B7D3171
:101CB00072088600730887004331403FF400413FBB
:101CC000F5007408F6007508F700F801F9017208CC
:101CD000860073088700453176088107413177080F
:101CE000813D41317808813D41317908813D0800CD
:101CF00020002B0886002C08870049310108803A13
:101D0000AD002B0886002C0887004E310103FF3AF6
:101D1000803AAD0203188D2E8E2EBB2E2B08860026
:101D20002C0887004A310130810741310318810AAC
:101D30002B0886002C0887004A31403FAD00413F08
:101D4000AE0000302E02413003192D02031CA92ED3
:101D5000AA2EFF2E2B0886002C0887004A3100305F
:101D6000C03FC13F2B0886002C088700010888313E
:101D700041208E31FF2E2B0886002C088700493128
:101D80000108AD00AE01AD1BAE032B0886002C0888
:101D900087004E312E08803A803C031DD12E2D083D
:101DA00001020318D42ED52EF62E20002B08023E59
:101DB000AD0000302C3DAE002D0886002E088700B7
:101DC000023081002B0886002C0887004A31003041
:101DD000C03FC13F2B0886002C0887000108AD00DA
:101DE0002D08F2009E3158268E31FF2E20002B0840
:101DF00086002C0887004A310030C03FC13F2000D8
:101E00002B0886002C0887004C31013081074131B6
:101E10000318810A2B0886002C0887004C31160015
:101E2000403AAD001600AD04031D172F182F272FC1
:101E30002B0886002C0887004C310030C03FC13F82
:101E40002C08F3002B08F2008D31E8258E310800B4
:101E50002000BD01BE01BF010B309E31E1268F3154
:101E60001E309E31E1268F31963129268F31013A7D
:101E7000031D3B2F3C2FC92F05309531D8258F31BD
:101E8000013A031D442F452F5A2F2000BD01BD0AE2
:101E9000003086318E268F31502F963129268F3192
:101EA00005309531D8258F31013A0319582F592F14
:101EB0004D2FDD2F06309531D8258F31013A031D86
:101EC000622F632F742F2000BE01BE0A6A2F963145
:101ED00029268F3106309531D8258F31013A0319E3
:101EE000722F732F672FDD2F04309531D8258F3156
:101EF000013A031D7C2F7D2FA02F20008C1E812FE7
:101F0000822F892F41309E31E1268F3122008C12A1
:101F10008F2F40309E31E1268F3122008C16003009
:101F200086318E268F31972F963129268F310430B6
:101F30009531D8258F31013A03199F2FA02F942F67
:101F40002000C001C00AB82FBF01BF0A22008C16B2
:101F5000200040080319AD2FAE2FB82F40309E311E
:101F6000E1268F31003086318E268F312000C0016E
:101F70000D1EBB2FBC2FA42F3F080319C02FC12F4C
:101F8000C92F41309E31E1268F3122008C12200072
:101F9000BF019F314D278F312000BB003B08BC00A3
:101FA00044303C06031DD52FD62F342F22008C122F
:101FB000003086318E268F31342F20003D03031DE3
:101FC000E22FE32FF02F22008C122000E001E00A24
:101FD00041309E31E1268F3142309E31E1268F31F2
:101FE00020003E03031DF52FF62FFF2FDE14413096
:101FF0009E31E1268F310C309E31E1268F31080071
:102000000034003400340034003400340034003430
:1020100000340034003400340034003464340134BB
:10202000013401340034003400340034003400340E
:10203000003400340034003400340034643401349B
:1020400002340234003400340034003400340034EC
:10205000003400340034003400340034643401347B
:1020600003340334003400340034003400340034CA
:10207000003400340034003400340034643401345B
:1020800004340434003400340034003400340034A8
:10209000003400340034003400340034643401343B
:1020A0000534053400340034003400340034003486
:1020B000003400340034003400340034643401341B
:1020C0000634063400340034003400340034003464
:1020D00000340034003400340034003464340134FB
:1020E0000734073400340034003400340034003442
:1020F00000340034003400340034003464340134DB
:10210000083408340034003400340034003400341F
:1021100000340034003400340034003464340134BA
:1021200078302100990098012200960108007B1C5C
:102130009A289B28A0287B36F2007208FB00A92869
:102140007B36F2007208FB007B08B43AF20072089A
:10215000FB007B080F39080020005F1CB028B12865
:10216000B42822008E16B62822008E1220005F08A6
:102170000139F2000130F2065F087206FE3972067C
:10218000DF00080091316B21903190319020903127
:102190009E316C2690319131852190319F31B3274A
:1021A00090319431D32490319E31D426903108005F
:1021B0002000111021004A08F1004908F0009F3169
:1021C0007E2790312100470848040319E828E928B0
:1021D000EE2848088A0047080A00903108002000CD
:1021E000DF1CF328F428F72822000E16F928220015
:1021F0000E1220005F0C0139F2000130F206F20DE0
:102200005F087206FD397206DF0008008B1F09297E
:102210000A2915298B1320002A08A6002908A500E1
:1022200089316F2191318B171D2920002A08A600C2
:102230002908A50089316F21913108009031EF20E4
:1022400091319031AC2091319F311D2791319131E5
:102250009F2191319F310D2791319431F624913195
:1022600022008C12003086318E26913108007308CE
:10227000803AF40080307402031D4029013072025C
:1022800003184329442950297209F4007309F50001
:10229000F40A0319F50A7408F2007508F3005029CE
:1022A00008002000B80138088B31E5239131003A4D
:1022B00003195B295C295E2900306A29013020005E
:1022C000B7003708B80709303802031C68296929A4
:1022D00053290130080022008C018D018E01083045
:1022E00021008C0030308D0080308E008030230043
:1022F0008E008D018C0124008D018C018E01210046
:10230000951722009D019E01080020009901D830F8
:102310009700F0309600111017082100CA00200025
:1023200016082100C90011145730F2001E30F300C6
:102330009E3193269131243020009800080020001F
:102340005F1EA329A429A9290B309E31E1269131D2
:10235000AD290C309E31E126913120005F0E01390C
:10236000F4000130F406F40E5F087406EF397406C9
:10237000DF0008008B1FBD29BE29CB298B137208F3
:10238000860073088700463121003208C03F3308B9
:10239000C13F8B17D5297208860073088700463124
:1023A00021003208C03F3308C13F08000A30F20064
:1023B0000030F3000030F40020002408F500250868
:1023C000F6002608F7008831D120913173082100EA
:1023D000B1007208B000A801A9019E3162269131B6
:1023E00022008C16080001302100A8070030A93D0A
:1023F00029083106031DFE2928083006031D012A7D
:10240000022A102A22008C122000E101E10A9E31EA
:102410005F2691312100A801A9012000DD01DD0A1C
:102420000800F601F701721C162A172A1B2A7408E5
:10243000F6077508F73D0130F435F50D890B1C2AB8
:102440000130F336F20C890B212A72087304031D44
:102450002A2A2B2A132A7708F3007608F2000800AC
:102460009031C22092319431F62492319531B125C8
:1024700092318B170B177530F2001E30F3009E312E
:102480008D269231F330F2001130F3009E31932605
:102490009231973166279231492A803126282200CD
:1024A0008E1521001D309D000530890B552A000036
:1024B0008E308400003085000E30860001308700A9
:1024C000213000179D00003200320032003221001E
:1024D0009D140032000022000E1700130800220095
:1024E0000E17210021309D000530890B752A000050
:1024F0008C308400003085000C308600013087006D
:10250000013000149D000032003200320032210000
:102510009D140032000022000C140010080022005C
:102520000C14210001309D000530890B952A000014
:102530008C308400003085000C308600013087002C
:10254000053080149D00003200320032003221003C
:102550009D140032000022008C148010080022001C
:102560008C14210005309D000530890BB52A000030
:102570008C308400003085000C30860001308700EC
:10258000093000159D000032003200320032210077
:102590009D140032000022000C15001108002200DA
:1025A0000C15210009309D000530890BD52A00004B
:1025B0008C308400003085000C30860001308700AC
:1025C0000D3000169D000032003200320032210032
:1025D0009D140032000022000C1600120800220098
:1025E0000C1621000D309D000530890BF52A0000E6
:1025F0008E308400003085000E3086000130870068
:10260000113000149D0000320032003200322100EF
:102610009D140032000022000E1400100800220059
:102620000E14210011309D000530890B152B000080
:102630008E308400003085000E3086000130870027
:10264000153080149D00003200320032003221002B
:102650009D140032000022008E1480100800220019
:102660008E14210015309D000530890B352B00009C
:102670008E308400003085000E30860001308700E7
:10268000193000159D000032003200320032210066
:102690009D140032000022000E15001108002200D7
:1026A0000E15210019309D000530890B552B0000B7
:1026B0008E308400003085000E30860001308700A7
:1026C0001D3080159D0000320032003200322100A2
:1026D0009D140032000022008E1580110800220097
:1026E0008E1121001D309D000530890B752B0000D7
:1026F0008E308400003085000E3086000130870067
:10270000213000179D0000320032003200322100DB
:102710009D140032000022000E1300130800220056
:102720000E13210021309D000530890B952B0000F0
:102730008C308400003085000C308600013087002A
:10274000013000149D0000320032003200322100BE
:102750009D140032000022000C100010080022001E
:102760000C10210001309D000530890BB52B0000B5
:102770008C308400003085000C30860001308700EA
:10278000053080149D0000320032003200322100FA
:102790009D140032000022008C10801008002200DE
:1027A0008C10210005309D000530890BD52B0000D1
:1027B0008C308400003085000C30860001308700AA
:1027C000093000159D000032003200320032210035
:1027D0009D140032000022000C110011080022009C
:1027E0000C11210009309D000530890BF52B0000EC
:1027F0008C308400003085000C308600013087006A
:102800000D3000169D0000320032003200322100EF
:102810009D140032000022000C1200120800220059
:102820000C1221000D309D000530890B152C000085
:102830008E308400003085000E3086000130870025
:10284000113000149D0000320032003200322100AD
:102850009D140032000022000E100010080022001B
:102860000E10210011309D000530890B352C000021
:102870008E308400003085000E30860001308700E5
:10288000153080149D0000320032003200322100E9
:102890009D140032000022008E10801008002200DB
:1028A0008E10210015309D000530890B552C00003D
:1028B0008E308400003085000E30860001308700A5
:1028C000193000159D000032003200320032210024
:1028D0009D140032000022000E1100110800220099
:1028E0000E11210019309D000530890B752C000058
:1028F0008E308400003085000E3086000130870065
:102900001D3080159D00003200320032003221005F
:102910009D140032000022008E11801108006030EA
:10292000F2002330F3000030F4009030F5009030D6
:10293000F6000030F70096317C2694312000A50186
:1029400025088831412094310130F90079082000B0
:10295000A50709302502031CAE2CAF2CA02C0800C3
:10296000F800093078020318B62CB72CD22C78085E
:102970002000A000A1012008F2002108F300093086
:10298000F4000030F500923111229431173020000C
:10299000A2002330A3007208220786007308233D9B
:1029A000870001140800083023009F0090309D002C
:1029B00024309E00A0309B0001309C000030F200CB
:1029C0000030F3009E31812694310030F200003057
:1029D000F3009E31872694310030F2000030F3007E
:1029E0009E317B2694312100B60108002000A6010B
:1029F0002635003E9F31D827943120002635A03E51
:102A0000860087017808C03F7908C13F0130A500E2
:102A10002508A60704302602031C0F2D102DF82CC4
:102A200008309F31D827943179082000EB007808CE
:102A3000EA0008002000A80028089431B02495314D
:102A400020002808A400A5012408F2002508F300AE
:102A50000930F4000030F5009231112295310F3029
:102A60002000A6002330A70072082607F80073088C
:102A7000273DF9009E31992695310800F80009306C
:102A800078020318442D452D622D78082000A000FF
:102A9000A1012008F2002108F3000930F400003001
:102AA000F50092311122953117302000A200233019
:102AB000A3007208220786007308233D8700010CDB
:102AC0000139632D0030080029309E31E12695310F
:102AD000762D0230F4007408FA00892D0330F400DA
:102AE0007408FA00892DFA01FA0A892D7A08F4008F
:102AF000F5017508003A03197E2D892D7408013AF5
:102B00000319692D033A03196E2D013A0319732D28
:102B1000892D08002000A0012008F600F701F60E1C
:102B2000F70EF030F70576080F39F704F030F605A8
:102B30006030F8002330F90076087807F200770853
:102B4000793DF3009631522695310130F600760832
:102B50002000A00709302002031CAF2DB02D8C2DC2
:102B600008002000D901DA015F149031AC209531C2
:102B70002000DF109031EF20953120005F115F12AF
:102B800091319F2195312000DF1222008C1221000B
:102B90003415B414B4159E31B52695310330F500C3
:102BA00075082000E100E001E00AFA01FA0A0800D5
:102BB000F600093076020318DE2DDF2DFE2D760893
:102BC000F200F301F20EF30EF030F30572080F3944
:102BD000F304F030F2056230F4002330F50072089F
:102BE000740786007308753D8700023001060319DB
:102BF000FA2DFC2D0130FD2D0030FF2D0030080096
:102C00002000A400093024020318072E082E262EC7
:102C10002408A000A1012008F2002108F3000930D7
:102C2000F4000030F5009231112296311530200069
:102C3000A2002330A3007208220786007308233DF8
:102C40008700403FF800413FF900282EF801F901C4
:102C500008002000630803192E2E2F2E342E9E31DB
:102C6000D42696312000E301E401E40A9131512198
:102C70009631003A031D3D2E3E2E402E0030512E3F
:102C80009F318F2796319E315D2696312000BA0004
:102C90003A08E4009731052796319E31682696312F
:102CA0000130080072088600730887004231023044
:102CB0000106031D5C2E5D2E7B2E720886007308B4
:102CC00087004A310130810741310318810A7208B7
:102CD0008600730887004A3116000104031D712E17
:102CE000722E7B2E72088600730887004A31FF30EF
:102CF000C03FFF30C13F080075082000A4007408E1
:102D0000A3007308A2007208A1009C2E230884006F
:102D1000240885000008F8007808A0000130A30707
:102D20000030A43D21088600220887002008810089
:102D30000130A1070030A23D0130F6020030F73B20
:102D4000760A031DA72E770A031DA72EA82E862E0E
:102D5000080000302000A0000030A1000030A200D8
:102D6000721CB32EB42EBB2E75082000A007760867
:102D7000A13D7708A23D0130F535F60DF70D890B21
:102D8000BC2E0130F436F30CF20C890BC22E740801
:102D900073047204031DCD2ECE2EB02E2000200809
:102DA000F2002108F3002208F400080020002508A2
:102DB00086002608870041310108963100269631A9
:102DC00078082000A7007908A800A901AA01250811
:102DD00086002608870045312708C03F2808C13FE4
:102DE0002908C23F2A08C33F250886002608870015
:102DF0004531043081354131810D4131810D413101
:102E0000810D7D31890BFA2E08000F302000A200C1
:102E10002330A3005730A0002330A1002308210253
:102E2000031D142F220820020318172F182F192F03
:102E3000332F2308F9002208F8009E319926973194
:102E400009302000A2070030A33D5730A0002330F6
:102E5000A10023082102031D2F2F2208200203189E
:102E6000322F332F192F0800F7007708F400740869
:102E7000F600230095183D2F3E2F392F7208F400DD
:102E8000F50174089100750892005E2F9518492F7E
:102E90004A2F462F7F30F400740895051514130847
:102EA000F400760886008701740881000130F40080
:102EB0007408F607013091070030923D0130F302AB
:102EC000730A031D642F652F462F080096312926AB
:102ED0009731013A031D6D2F6E2F972F06309531D4
:102EE000D8259731013A031D762F772F972F7B2F07
:102EF00096312926973106309531D8259731013AF8
:102F00000319832F842F782F91311E21973180311F
:102F1000732097318E2F96312926973106309531BF
:102F2000D8259731013A0319962F972F8B2F080038
:102F30008B13BE2F22000D170B30F6000030F70068
:102F40000130F6020030F73B76087704031DA92F05
:102F5000AA2FA02F22000D137435F600750DF7006F
:102F6000B42F0000000000000130F6020030F73BF3
:102F700076087704031DBD2FBE2FB12F0130F2025A
:102F80000030F33B72087304031DC72FC82F9A2F1C
:102F900022000D138B170800720873040319D12F38
:102FA000D22FFB2FF701F70ADE2F0130F235F30D98
:102FB000890BD62F0130F6007608F707F31FE12FB3
:102FC000E22FD52F73087502031DE82F72087402D3
:102FD000031CEB2FEC2FF02F7208F4027308F53B63
:102FE0000130F336F20C890BF12F0130F702031D8B
:102FF000FA2FFB2FE22F7508F3007408F200080087
:103CAC000800080008000800080001300800003077
:103CBC00080020001810080020001814080020002C
:103CCC001810080095318A259E3108001630210005
:103CDC009700080021009D01D0309E0008000130A3
:103CEC002000DB070030DC3D080073082100CE000B
:103CFC007208CD00080073082100D2007208D100B0
:103D0C00080073082100D0007208CF000800730867
:103D1C002100CC007208CB00080073082100C800F9
:103D2C007208C700080078088600790887004831B7
:103D3C00811008007208860073088700483101154D
:103D4C0008007208860073088700483101110800CA
:103D5C00720886007308870048318114080020001F
:103D6C00D301D401D501D601D701D801D80A080056
:103D7C00F2002000111EC32EC42EBF2E7208230089
:103D8C009A0008006400800101310130FE0200300D
:103D9C00FF3B7F087E04031DC92E00349F31A127F1
:103DAC009E3194318F249E31973105279E319E315F
:103DBC0070269E310800F3009E31EF269E31003AAA
:103DCC000319E92EEA2EEE2E73089E31BE269E3183
:103DDC000800F2012000111EF42EF52EFC2E2300FB
:103DEC009E1EF92EFA2EFC2EF201F20A7208080021
:103DFC002000A2007830A0002008F2000230A100C0
:103E0C002108F3002208883187209E310800200009
:103E1C005F0EF200720C0139F2000130F206F20E64
:103E2C00F20D5F087206DF397206DF000800200011
:103E3C005F0CF200720C0139F2000130F206F20D47
:103E4C00F20D5F087206FB397206DF00080072087B
:103E5C0073040319322F332F3B2F7208860073081B
:103E6C0087004831010801393C2F00300800200040
:103E7C00911E412F422F3D2F2100B60123009D1C86
:103E8C00482F492F4B2F1D121D1619080800883179
:103E9C0000209F31003A0319542F552F5C2F9F316E
:103EAC003D279F31F2007208F30073080800743448
:103EBC000B3478340E342D340A3458341E345834C0
:103ECC001E348F3413346F3412345A341E340B11A5
:103EDC0020006208950021004B084C040319772F31
:103EEC00782F7D2F4C088A004B080A009F31080060
:103EFC002000181D822F832F8A2F1810710897000D
:103F0C007008960018148E2F710897007008960090
:103F1C0008002000B90139088A3198229F310130FC
:103F2C002000B8003808B90709303902031C9F2F4C
:103F3C00A02F912F08002000AA012A0895311A25DC
:103F4C009F3101302000A9002908AA0709302A0254
:103F5C00031CB12FB22FA32F080021001508C03964
:103F6C001738950020009501E2010B118B16563085
:103F7C00F2001E30F3009E318D269F310800200088
:103F8C006608F2007208F3007308031DCE2FCF2FC2
:103F9C00D02FD72F0130F3027308031DD62FD72F44
:103FAC00D02F08002000A4002408A0002008F20054
:103FBC000230A1002108F3002230973134279F31C1
:103FCC0020002308F9002208F80008007208860077
:103FDC00730887004131403F2100C300413FC400BA
:103FEC0072088600730887004331403FC100413F8F
:043FFC00C2000800F7
:020000040001F9
:04000E00E43DFF1EB0
:10E000000000000000000000000000000000000010
:04E01000000000000C
:00000001FF
